:100000000C942A000C9447000C9447000C94470071
:100010000C9447000C9447000C9447000C94470044
:100020000C9447000C9447000C9447000C94470034
:100030000C9447000C9447000C9447000C94470024
:100040000C9447000C9447000C9447000C94470014
:100050000C94470011241FBECFE5D8E0DEBFCDBF12
:1000600010E0A0E6B0E0E2EDFDE002C005900D92E8
:10007000AA38B107D9F720E0AAE8B0E001C01D9284
:10008000AE38B207E1F70E947A000C94E7060C94B0
:100090000000CF92DF92EF92FF920F9369017A01F5
:1000A0000B3249F018F40A3259F01BC00D32A1F09E
:1000B0000F3269F016C0620F731F841F951F14C0A2
:1000C0009B01AC01C701B6010E947C060DC00E94D5
:1000D0008C06CA01B90108C0621B730B840B950B17
:1000E00003C060E070E0CB010F91FF90EF90DF90D4
:1000F000CF900895CF93DF9300D000D0CDB7DEB777
:1001000080E00E94D90180E00E9435036FE080E02A
:100110000E94CF021C821B8200E01A8210E0F12CA8
:10012000312C212CC12CD12CE12C412C512C320111
:10013000812C912C5401BE016F5F7F4F80E00E94A3
:10014000160289818F3FB9F38D33A9F56CE080E009
:100150000E94CF028B81813049F4B094A094909496
:100160008094811C911CA11CB11C1B828C8181304C
:1001700049F47094609450944094411C511C611C4B
:10018000711C1C82032DA3019201C501B4010E94C0
:100190004900262EC72ED82EE92E4AE062E080E0E4
:1001A0000E94F503422D5C2D6D2D7E2D80E00E9476
:1001B000700401E0C0CF8B3239F08D3229F08A32E1
:1001C00019F08F3209F075C06FE080E00E94CF0215
:1001D00081E0F81227C08A81813021F58B8181303E
:1001E00049F4B094A09490948094811C911CA11C1B
:1001F000B11C1B828C81813049F4709460945094BE
:100200004094411C511C611C711C1C82032DA301D4
:100210009201C501B4010E944900262EC72ED82E96
:10022000E92E01E00130A9F480E00E94E603422DAE
:100230005C2D6D2D7E2D80E00E947004822C9C2C04
:10024000AD2CBE2C00E01A8211E0F12C412C512C77
:100250003201113061F401110AC0F11008C0698146
:1002600080E00E9410043980FF24F39464CF1111C0
:100270000BC069816D3241F48B81811105C00E94F0
:10028000100481E08B8357CF113009F054CF81E007
:10029000F81251CF89818D3209F04DCF68E280E0AC
:1002A0000E941004698180E00E94100481E08C8328
:1002B00042CF833491F480E00E94E60300E01A828A
:1002C00010E0F12C212CC12CD12CE12C412C512CF3
:1002D0003201812C912C54012ECF6FE080E00E94DE
:1002E000CF02013029F480E00E94E60300E0F12C07
:1002F000011121CF698180E00E94100481E0F81291
:100300002DC08A818130F1F4440C551C661C771C89
:10031000D301C201880F991FAA1FBB1F880F991F05
:10032000AA1FBB1F480E591E6A1E7B1E898190E0C2
:10033000C097092E000CAA0BBB0B480E591E6A1E53
:100340007B1EF9CE4980512C80E3481A5108052CB8
:10035000000C6608770881E08A83EDCE1130F1F455
:10036000880C991CAA1CBB1CD501C401880F991FBD
:10037000AA1FBB1F880F991FAA1FBB1F880E991E9B
:10038000AA1EBB1E898190E0C097092E000CAA0B03
:10039000BB0B880E991EAA1EBB1ECDCE8980912C48
:1003A00080E3881A9108092C000CAA08BB0811E008
:1003B000C2CECF93882389F081E036C08C2F90E0A5
:1003C000FC01EC59FF4FDC01A459BF4F40E06081B4
:1003D0008C910E94E704CF5F01C0C0E0C43070F38D
:1003E000C0E00EC08C2F90E0FC01E05AFF4FDC0112
:1003F000A859BF4F41E060818C910E94E704CF5F14
:10040000C43080F3C0E00DC08C2F90E0FC01EC59AB
:10041000FF4FDC01A459BF4F60818C910E943A06C6
:10042000CF5FC43088F380E0CF9108959F92AF9260
:10043000BF92CF92DF92EF92FF920F931F93CF93D1
:10044000DF931F92CDB7DEB7811163C061157105CF
:1004500009F461C05B018FEFFB018083912C00E008
:1004600053C0C02ED12CD601A05ABF4FF601E85977
:10047000FF4F40E06C9180810E946D0510E033C019
:10048000E12EF12CD701AC59BF4FF701E459FF4FD2
:10049000AE014F5F5F4F6C9180810E94F3058981AF
:1004A000811120C00DC0AE014F5F5F4FF701EC59C5
:1004B000FF4F6081F701E459FF4F80810E94F305EF
:1004C0008981882381F3F701EE0FFF1FEE0FFF1FD5
:1004D000E059FF4FEC0DFD1D8081F50180839924CB
:1004E000939403C01F5F143058F2F1E09F1679F027
:1004F000D601A05ABF4FF601E859FF4F41E06C9179
:1005000080810E946D050F5F043008F4AACF80E05F
:1005100003C081E001C082E00F90DF91CF911F9175
:100520000F91FF90EF90DF90CF90BF90AF909F9092
:1005300008950F931F93CF93DF9381112AC0062F45
:10054000182FC82FCC0FCC0FD0E014C0402F50E094
:100550000D2E02C0559547950A94E2F74170DF01D0
:10056000A058BF4FE657FF4F6C9180810E946D05E8
:10057000DF5FCF5FEC2FF0E0212F30E02F5F3F4FA8
:10058000220F331F220F331FE217F307FCF280E024
:1005900001C081E0DF91CF911F910F910895EF92FB
:1005A000FF920F931F93CF93DF93811156C0062FB5
:1005B000182FC82FD0E0DE01A857BF4FFE01E75724
:1005C000FF4F40E06C9180810E946D05DE01AA57CB
:1005D000BF4FFE01E957FF4F40E06C9180810E94C0
:1005E0006D05602F62956F70812F0E949902CE0178
:1005F0008C579F4F7C01CB57DF4F41E0FC0160815E
:1006000088810E946D058FE99FE00197F1F700C096
:10061000000040E0F701608188810E946D05602F35
:10062000812F0E94990241E0F701608188810E9438
:100630006D058FE99FE00197F1F700C0000040E0F1
:10064000F701608188810E946D0587EC90E0019739
:10065000F1F700C0000080E001C081E0DF91CF91A0
:100660001F910F91FF90EF900895CF92DF92FF922C
:100670000F931F93CF93DF9381119FC0F82E082F04
:1006800010E0D801A857BF4FF801E757FF4F41E0EE
:100690006C9180810E94E704D801AA57BF4FF801EE
:1006A000E957FF4F41E06C9180810E94E704D80137
:1006B000AC57BF4FF801EB57FF4F41E06C91808181
:1006C0000E94E704CF2DCC0FCC0F0CC0F901E058ED
:1006D000FF4FD901A657BF4F41E060818C910E9426
:1006E000E704CF5F2C2F30E0A8014F5F5F4F440F2E
:1006F000551F440F551F2417350744F32FEF83EF81
:1007000091E0215080409040E1F700C00000D80106
:10071000A857BF4FF801E757FF4F40E06C91808129
:100720000E946D05D801AA57BF4FF801E957FF4F46
:1007300040E06C9180810E946D0562E08F2D0E94E7
:100740009902F801EC57FF4F6F01E801CB57DF4FDB
:1007500041E0608188810E946D058FE99FE00197EB
:10076000F1F700C0000040E0F601608188810E943E
:100770006D0568E28F2D0E94CF0287EC90E0019713
:10078000F1F700C000006CE08F2D0E94CF02E7EC73
:10079000F0E03197F1F700C0000061E08F2D0E947A
:1007A000CF028FE39FE10197F1F700C0000066E000
:1007B0008F2D0E94CF0280E001C081E0DF91CF91B8
:1007C0001F910F91FF90DF90CF90089581110BC082
:1007D00061E00E94CF028FE39FE10197F1F700C033
:1007E000000080E0089581E00895811113C0403138
:1007F00098F4613019F0623039F010C060E8640F8D
:100800000E94CF0280E0089560EC640F0E94CF0246
:1008100080E0089581E0089582E0089580E00895E1
:10082000EF92FF920F931F93CF93DF93811150C0EC
:10083000062F182FC82FD0E0DE01A857BF4FFE01AA
:10084000E757FF4F41E06C9180810E946D05DE010A
:10085000AA57BF4FFE01E957FF4F40E06C918081DE
:100860000E946D05602F62956F70812F0E94990222
:10087000CE018C579F4F7C01CB57DF4F41E0FC01ED
:10088000608188810E946D058FE99FE00197F1F7F3
:1008900000C0000040E0F701608188810E946D0582
:1008A000602F812F0E94990241E0F70160818881C9
:1008B0000E946D058FE99FE00197F1F700C00000ED
:1008C00040E0F701608188810E946D0580E001C0F1
:1008D00081E0DF91CF911F910F91FF90EF900895EC
:1008E0008F929F92AF92BF92CF92DF92EF92FF9240
:1008F000CF93C82F6A017B0181115EC0411551055C
:100900006105710529F460E30E94100480E055C080
:1009100077235CF46DE20E941004F094E094D0948C
:10092000C094C11CD11CE11CF11C61E070E080E0AE
:1009300090E024C0DC01CB01880F991FAA1FBB1FC8
:100940004C015D01880C991CAA1CBB1C880C991CCD
:10095000AA1CBB1C880E991EAA1EBB1EC701B6018D
:100960002AE030E040E050E00E948C06680D791DDE
:100970008A1D9B1DC22ED32EE42EF52EC114D10448
:10098000E104F104B9F62AE030E040E050E00E94D2
:100990008C06C22ED32EE42EF52E605D8C2F0E9485
:1009A00010046C2D7D2D8E2D9F2D613071058105DC
:1009B000910549F780E001C081E0CF91FF90EF9071
:1009C000DF90CF90BF90AF909F908F90089584302C
:1009D00008F07BC0683008F07AC0423008F079C077
:1009E000813011F130F08230D1F1833009F452C0FE
:1009F00072C0413061F42AB381E090E002C0880FF8
:100A0000991F6A95E2F7822B8ABB80E008952AB38A
:100A100081E090E002C0880F991F6A95E2F7809507
:100A200082238ABB80E00895413061F427B381E0DE
:100A300090E002C0880F991F6A95E2F7822B87BB6E
:100A400080E0089527B381E090E002C0880F991FED
:100A50006A95E2F78095822387BB80E00895413054
:100A600061F424B381E090E002C0880F991F6A9579
:100A7000E2F7822B84BB80E0089524B381E090E00C
:100A800002C0880F991F6A95E2F78095822384BB84
:100A900080E00895413061F421B381E090E002C02C
:100AA000880F991F6A95E2F7822B81BB80E0089539
:100AB00021B381E090E002C0880F991F6A95E2F7A8
:100AC0008095822381BB80E0089584E0089581E0D1
:100AD000089582E0089580E00895843008F07BC096
:100AE000683008F07AC0423008F079C0813011F1E6
:100AF00030F08230D1F1833009F452C072C04130FD
:100B000061F42BB381E090E002C0880F991F6A95D1
:100B1000E2F7822B8BBB80E008952BB381E090E05D
:100B200002C0880F991F6A95E2F7809582238BBBDC
:100B300080E00895413061F428B381E090E002C084
:100B4000880F991F6A95E2F7822B88BB80E0089591
:100B500028B381E090E002C0880F991F6A95E2F700
:100B60008095822388BB80E00895413061F425B3ED
:100B700081E090E002C0880F991F6A95E2F7822B0E
:100B800085BB80E0089525B381E090E002C0880F26
:100B9000991F6A95E2F78095822385BB80E00895CE
:100BA000413061F422B381E090E002C0880F991FC8
:100BB0006A95E2F7822B82BB80E0089522B381E040
:100BC00090E002C0880F991F6A95E2F78095822312
:100BD00082BB80E0089584E0089581E0089583E079
:100BE000089580E008958430E8F56830E8F541150F
:100BF0005105E1F1813091F028F08230D9F0833055
:100C000029F136C089B390E002C0959587956A9521
:100C1000E2F78170FA01808380E0089586B390E066
:100C200002C0959587956A95E2F78170FA018083F5
:100C300080E0089583B390E002C0959587956A950A
:100C4000E2F78170FA01808380E0089580B390E03C
:100C500002C0959587956A95E2F78170FA018083C5
:100C600080E0089584E0089581E0089587E0089584
:100C700080E008958430D0F56830D0F5813091F06F
:100C800028F08230D9F0833029F134C02BB381E0D1
:100C900090E002C0880F991F6A95E2F7822B8BBB08
:100CA00080E0089528B381E090E002C0880F991F8A
:100CB0006A95E2F7822B88BB80E0089525B381E036
:100CC00090E002C0880F991F6A95E2F7822B85BBDE
:100CD00080E0089522B381E090E002C0880F991F60
:100CE0006A95E2F7822B82BB80E0089584E0089544
:100CF00081E0089580E00895DB018F939F930E9427
:100D0000AB06BF91AF91A29F800D911DA39F900D47
:100D1000B29F900D11240895052E97FB1EF40094A8
:100D20000E94A30657FD07D00E94B60607FC03D019
:100D30004EF40C94A30650954095309521953F4F65
:100D40004F4F5F4F089590958095709561957F4FB7
:100D50008F4F9F4F08950E94D806A59F900DB49F76
:100D6000900DA49F800D911D11240895A1E21A2ECB
:100D7000AA1BBB1BFD010DC0AA1FBB1FEE1FFF1F3F
:100D8000A217B307E407F50720F0A21BB30BE40B8F
:100D9000F50B661F771F881F991F1A9469F76095D6
:100DA0007095809590959B01AC01BD01CF01089590
:100DB000A29FB001B39FC001A39F700D811D11249C
:100DC000911DB29F700D811D1124911D0895F894FD
:020DD000FFCF53
:100DD20004050607000103040101010102020202E7
:100DE2003132332F3435362B3738392D2A30433DC3
:0A0DF20004050607030102010101D8
:00000001FF
