S00B000046414E2E7372656344
S11300000C943A000C9457000C9457000C9457002D
S11300100C9457000C9457000C948F040C94B60461
S11300200C94DD040C9404050C9457000C945700B4
S11300300C9457000C9457000C9457000C945700E0
S11300400C9457000C9457000C9457000C945700D0
S11300500C9457003B054805550562056F057C0562
S113006089059605A305B005BD05CA05D705FD0597
S1130070E405F10511241FBECFE5D8E0DEBFCDBFF6
S113008010E0A0E6B0E0E0E0F2E102C005900D92DD
S1130090A637B107D9F720E0A6E7B0E001C01D926A
S11300A0A638B207E1F70E9459000C94FE080C949C
S11300B00000CF93DF9300D0CDB7DEB719821A8248
S11300C060E081E00E942F0366E083E00E942F033A
S11300D062E082E00E94EA0167E082E00E94EA01B5
S11300E062E08EE00E9436030E94390380E00E94A1
S11300F014010E94F60160E080E00E949A02F12C53
S1130100E12C00E010E0AE014F5F5F4F60E081E062
S11301100E943303AE014E5F5F4F66E083E00E94AE
S113012033038981813079F407C0AE014F5F5F4F9B
S113013060E081E00E94330389818130B1F31F5F65
S1130140143008F010E08A81813079F407C0AE01E0
S11301504E5F5F4F66E083E00E9433038A81813003
S1130160B1F30F5F023009F400E0112301F162E002
S113017082E00E94EE01612F80E00E94DE021230D4
S113018051F0133071F0113001F54EE161E080E07F
S11301900E943D011AC04CE361E080E00E943D01F1
S11301A014C04AE561E080E00E943D010EC062E0B7
S11301B082E00E94F20180E00E94C201612F80E08F
S11301C00E94DE0280E00E941D03013021F511230C
S11301D011F12FEF80E792E0215080409040E1F749
S11301E000C0000067E082E00E94EE0126EAF216F9
S11301F021F08AE5F81205C002C0E12C02C0EE2409
S1130200E394E11002C0F39401C0FA946F2D80E0EE
S11302100E94070278CF67E082E00E94F2016F2D0E
S113022080E00E9407026FCFCF93DF93811121C03A
S1130230D82FC82FCC0FC80F0CC0DA01A05ABF4F5B
S1130240FA01ED59FF4F41E06C9180810E943C031B
S1130250CF5F4C2F50E02D2F30E02F5F3F4FB9017F
S1130260660F771F260F371F4217530734F380E0BA
S113027001C081E0DF91CF910895AF92BF92CF92F8
S1130280DF92EF92FF920F931F93CF93DF9381112D
S113029069C0453608F068C0142F662319F0613030
S11302A001F164C090E0EC01CC0FDD1FC80FD91F31
S11302B0CE010196FC01E05AFF4FDC01AD59BF4F5E
S11302C041E060818C910E94C2032296FE01E05AB3
S11302D0FF4FCD59DF4F40E0608188810E94C20307
S11302E01EC090E0EC01CC0FDD1FC80FD91FCE015A
S11302F00196FC01E05AFF4FDC01AD59BF4F40E0CD
S113030060818C910E94C2032296FE01E05AFF4F45
S1130310CD59DF4F41E0608188810E94C203612F83
S113032070E080E090E00E94D50725E42F932CE94B
S11303302F9320E42F931F92A12CB12C6501E12C63
S1130340F12C08EC12E4A60195010E9457060E94C4
S1130350A607CB010E944F060F900F900F900F90AD
S113036080E005C081E003C083E001C082E0DF914A
S1130370CF911F910F91FF90EF90DF90CF90BF909E
S1130380AF900895CF93DF93811120C090E0EC01EA
S1130390CC0FDD1FC80FD91FCE010196FC01E05A16
S11303A0FF4FDC01AD59BF4F40E060818C910E944A
S11303B0C2032296FE01E05AFF4FCD59DF4F40E0C1
S11303C0608188810E94C20380E001C081E0DF91E6
S11303D0CF91089541E00E943C03089541E00E94BA
S11303E0C203089540E00E94C20308950E94550686
S11303F0682F70E080E29EE40E94D008CB010E9446
S1130400520641E065E083E00E943C0308954F9268
S11304105F926F927F92AF92BF92CF92DF92EF92F0
S1130420FF920F931F93CF93DF93CDB7DEB72A9735
S11304300FB6F894DEBF0FBECDBF823008F065C0A2
S1130440882319F004EB10E002C00AE516EA6117EC
S11304500CF45BC006170CF458C0762E0E945506A7
S1130460282F30E088EE93E0B9010E94D008FB0108
S113047080ED97E0B9010E94D0087A876987BF01AF
S113048080E090E00E94D5075B016C01602F000FB3
S1130490770B880B990B0E94D70769837A838B8328
S11304A09C83612F110F770B880B990B0E94D70740
S11304B06D837E838F839887672D770C770B880BEA
S11304C0990B0E94D7072B013C0129853A85B90174
S11304D080E090E00E94D5079F938F937F936F9362
S11304E0E980FA800B811C812D813E814F815885E2
S11304F0C301B2010E9457060E94A607CB010E94C5
S11305004C060F900F900F900F902A960FB6F89408
S1130510DEBF0FBECDBFDF91CF911F910F91FF9032
S1130520EF90DF90CF90BF90AF907F906F905F90EF
S11305304F9008950F931F93CF93DF938230C0F5AC
S1130540D62FC82F082F10E0D801AE58BF4FF8019E
S1130550EC58FF4F41E06C9180810E943C03D13004
S113056059F441E0F801E259FF4F6081F801E05984
S1130570FF4F80810E943C03CC0FCC0F0CC0F901CB
S1130580EA59FF4FD901AA58BF4F41E060818C91CD
S11305900E943C03CF5F2C2F30E0C8010196880FE6
S11305A0991F880F991F281739074CF380E001C061
S11305B081E0DF91CF911F910F9108950F931F93C5
S11305C0CF93DF93823098F5062F182FC82FD0E0F1
S11305D0DE01AE58BF4FFE01EC58FF4F41E06C9175
S11305E080810E94C203110F110F14C0402F50E0EC
S11305F0012E02C0559547950A94E2F74170F9011E
S1130600EA59FF4FD901AA58BF4F60818C910E94CB
S1130610C2031F5F212F30E0CE010196880F991F7E
S1130620880F991F281739070CF380E001C081E077
S1130630DF91CF911F910F910895823070F490E073
S1130640FC01EE58FF4FDC01AC58BF4F40E0608125
S11306508C910E94C20380E0089581E0089540E0F7
S11306600E943C0308950E94480408950E942B05AB
S113067008950E9448060895843008F07BC06830CD
S113068008F07AC0423008F079C0813011F130F0BE
S11306908230D1F1833009F452C072C0413061F428
S11306A02AB381E090E002C0880F991F6A95E2F7AF
S11306B0822B8ABB80E008952AB381E090E002C0D7
S11306C0880F991F6A95E2F7809582238ABB80E0A0
S11306D00895413061F427B381E090E002C0880FAF
S11306E0991F6A95E2F7822B87BB80E0089527B3B0
S11306F081E090E002C0880F991F6A95E2F7809527
S1130700822387BB80E00895413061F424B381E003
S113071090E002C0880F991F6A95E2F7822B84BB90
S113072080E0089524B381E090E002C0880F991F0F
S11307306A95E2F78095822384BB80E00895413076
S113074061F421B381E090E002C0880F991F6A959B
S1130750E2F7822B81BB80E0089521B381E090E031
S113076002C0880F991F6A95E2F78095822381BBA6
S113077080E0089584E0089581E0089582E008957A
S113078080E00895843008F07BC0683008F07AC0B7
S1130790423008F079C0813011F130F08230D1F16B
S11307A0833009F452C072C0413061F42BB381E04C
S11307B090E002C0880F991F6A95E2F7822B8BBBE9
S11307C080E008952BB381E090E002C0880F991F68
S11307D06A95E2F7809582238BBB80E008954130CF
S11307E061F428B381E090E002C0880F991F6A95F4
S11307F0E2F7822B88BB80E0089528B381E090E083
S113080002C0880F991F6A95E2F78095822388BBFE
S113081080E00895413061F425B381E090E002C0A6
S1130820880F991F6A95E2F7822B85BB80E00895B3
S113083025B381E090E002C0880F991F6A95E2F722
S11308408095822385BB80E00895413061F422B312
S113085081E090E002C0880F991F6A95E2F7822B2D
S113086082BB80E0089522B381E090E002C0880F4B
S1130870991F6A95E2F78095822382BB80E00895F0
S113088084E0089581E0089583E0089580E0089568
S11308908430E8F56830E8F541155105E1F181301F
S11308A091F028F08230D9F0833029F136C089B331
S11308B090E002C0959587956A95E2F78170FA01F8
S11308C0808380E0089586B390E002C09595879573
S11308D06A95E2F78170FA01808380E0089583B31A
S11308E090E002C0959587956A95E2F78170FA01C8
S11308F0808380E0089580B390E002C09595879549
S11309006A95E2F78170FA01808380E0089584E0BB
S1130910089581E0089587E0089580E008951F9286
S11309200F920FB60F9211242F933F934F935F931F
S11309306F937F938F939F93AF93BF93EF93FF93A3
S1130940E0918400F09185000995FF91EF91BF91AA
S1130950AF919F918F917F916F915F914F913F9153
S11309602F910F900FBE0F901F9018951F920F920A
S11309700FB60F9211242F933F934F935F936F936E
S11309807F938F939F93AF93BF93EF93FF93E091E4
S11309908200F09183000995FF91EF91BF91AF918F
S11309A09F918F917F916F915F914F913F912F9183
S11309B00F900FBE0F901F9018951F920F920FB6B5
S11309C00F9211242F933F934F935F936F937F93D1
S11309D08F939F93AF93BF93EF93FF93E0917E0028
S11309E0F0917F000995FF91EF91BF91AF919F9195
S11309F08F917F916F915F914F913F912F910F90C4
S1130A000FBE0F901F9018951F920F920FB60F9262
S1130A1011242F933F934F935F936F937F938F93FF
S1130A209F93AF93BF93EF93FF93E0918000F09176
S1130A3081000995FF91EF91BF91AF919F918F91A3
S1130A407F916F915F914F913F912F910F900FBEC6
S1130A500F901F901895803108F012C18D3009F461
S1130A6011C190E08031910508F0C7C0FC01E65D3A
S1130A70FF4F0C94E4088FB58E7F8FBD8FB58D7FAB
S1130A808FBD8EB5877F8EBD8EB58F7E8EBDB5C072
S1130A908FB581608FBD8FB58D7F8FBD8EB5877FFC
S1130AA08EBD8EB58F7E8EBDA8C08FB58E7F8FBD57
S1130AB08FB582608FBD8EB5877F8EBD8EB58F7EDC
S1130AC08EBD9BC08FB581608FBD8FB582608FBD99
S1130AD08EB5877F8EBD8EB58F7E8EBD8EC08FB551
S1130AE08E7F8FBD8FB58D7F8FBD8EB588608EBD97
S1130AF08EB58F7E8EBD81C08FB581608FBD8FB561
S1130B008D7F8FBD8EB588608EBD8EB58F7E8EBD78
S1130B1074C08FB58E7F8FBD8FB582608FBD8EB54B
S1130B2088608EBD8EB58F7E8EBD67C08FB58160A7
S1130B308FBD8FB582608FBD8EB588608EBD8EB53A
S1130B408F7E8EBD5AC08FB58E7F8FBD8FB58D7F42
S1130B508FBD8EB5877F8EBD8EB580618EBD4DC035
S1130B608FB581608FBD8FB58D7F8FBD8EB5877F2B
S1130B708EBD8EB580618EBD40C08FB58E7F8FBD1A
S1130B808FB582608FBD8EB5877F8EBD8EB5806137
S1130B908EBD33C08FB581608FBD8FB582608FBD30
S1130BA08EB5877F8EBD8EB580618EBD26C08FB514
S1130BB08E7F8FBD8FB58D7F8FBD8EB588608EBDC6
S1130BC08EB580618EBD19C08FB58E7F8FBD8FB5F8
S1130BD082608FBD8EB588608EBD8EB580618EBDFE
S1130BE00CC08FB581608FBD8FB582608FBD8EB50F
S1130BF088608EBD8EB580618EBD643008F044C0BF
S1130C006130A1F028F06230F9F0633059F13EC050
S1130C108FB58F7B8FBD8FB58F778FBD8FB58F7E4F
S1130C208FBD8FB58F7D8FBD80E008958FB58064B3
S1130C308FBD8FB58F778FBD8FB580618FBD8FB519
S1130C408F7D8FBD80E008958FB58F7B8FBD8FB56D
S1130C5080688FBD8FB58F7E8FBD8FB580628FBD4D
S1130C6080E008958FB580648FBD8FB580688FBD97
S1130C708FB580618FBD8FB580628FBD80E0089590
S1130C8081E0089581E0089582E0089580E0089568
S1130C908EB583608EBD08959BBD8ABD089599BDB0
S1130CA088BD089597BD86BD089584E008954F9248
S1130CB05F926F927F92AF92BF92CF92DF92EF9248
S1130CC0FF920F931F93CF93DF93CDB7DEB72C978B
S1130CD00FB6F894DEBF0FBECDBF29013A01ED82F5
S1130CE0FE820F8318870E94C0060E949F076983B3
S1130CF07A838B839C83A60195016D8D7E8D8F8D68
S1130D0098A10E94C00669877A878B879C87A30174
S1130D109201C801B7010E94C0069B01AC0169851C
S1130D207A858B859C850E942D072B013C01698166
S1130D307A818B819C810E94D707A30192010E9432
S1130D4063089B01AC01C601B5010E94C1060E9463
S1130D509F070E94D7072C960FB6F894DEBF0FBEEC
S1130D60CDBFDF91CF911F910F91FF90EF90DF9056
S1130D70CF90BF90AF907F906F905F904F90089509
S1130D805058BB27AA270E94D8060C9429080E9411
S1130D901B0838F00E94220820F039F49F3F19F410
S1130DA026F40C9418080EF4E095E7FB0C94120852
S1130DB0E92F0E943A0858F3BA17620773078407A9
S1130DC0950720F079F4A6F50C945C080EF4E095F0
S1130DD00B2EBA2FA02D0B01B90190010C01CA01F1
S1130DE0A0011124FF27591B99F0593F50F4503E9C
S1130DF068F11A16F040A22F232F342F4427585F8E
S1130E00F3CF469537952795A795F0405395C9F7A5
S1130E107EF41F16BA0B620B730B840BBAF091505D
S1130E20A1F0FF0FBB1F661F771F881FC2F70EC0FC
S1130E30BA0F621F731F841F48F4879577956795CF
S1130E40B795F7959E3F08F0B0CF9395880F08F0BB
S1130E509927EE0F9795879508950E9441070C9462
S1130E6029080E94220858F00E941B0840F029F427
S1130E705F3F29F00C94120851110C945D080C94F6
S1130E8018080E943A0868F39923B1F3552391F3A3
S1130E90951B550BBB27AA2762177307840738F0E5
S1130EA09F5F5F4F220F331F441FAA1FA9F335D042
S1130EB00E2E3AF0E0E832D091505040E695001CF6
S1130EC0CAF72BD0FE2F29D0660F771F881FBB1FB0
S1130ED0261737074807AB07B0E809F0BB0B802D8E
S1130EE0BF01FF2793585F4F3AF09E3F510578F0BA
S1130EF00C9412080C945D085F3FE4F3983ED4F31D
S1130F00869577956795B795F7959F5FC9F7880F8D
S1130F10911D9695879597F90895E1E0660F771FDF
S1130F20881FBB1F621773078407BA0720F0621B70
S1130F30730B840BBA0BEE1F88F7E09508950E949B
S1130F40A6076894B1110C945D0808950E944208A4
S1130F5088F09F5798F0B92F9927B751B0F0E1F076
S1130F60660F771F881F991F1AF0BA95C9F714C026
S1130F70B13091F00E945C08B1E008950C945C08D3
S1130F80672F782F8827B85F39F0B93FCCF386955F
S1130F9077956795B395D9F73EF4909580957095BC
S1130FA061957F4F8F4F9F4F0895E89409C097FB39
S1130FB03EF490958095709561957F4F8F4F9F4F2C
S1130FC09923A9F0F92F96E9BB279395F695879570
S1130FD077956795B795F111F8CFFAF4BB0F11F433
S1130FE060FF1BC06F5F7F4F8F4F9F4F16C08823DA
S1130FF011F096E911C0772321F09EE8872F762F10
S113100005C0662371F096E8862F70E060E02AF050
S11310109A95660F771F881FDAF7880F969587953C
S113102097F9089597F99F6780E870E060E0089564
S11310309FEF80EC089500240A94161617061806EC
S11310400906089500240A941216130614060506C8
S11310500895092E0394000C11F4882352F0BB0F59
S113106040F4BF2B11F460FF04C06F5F7F4F8F4FBC
S11310709F4F089557FD9058440F551F59F05F3FF7
S113108071F04795880F97FB991F61F09F3F79F0A6
S113109087950895121613061406551FF2CF469528
S11310A0F1DF08C0161617061806991FF1CF8695AA
S11310B07105610508940895E894BB27662777278E
S11310C0CB0197F908950E9476080C9429080E9490
S11310D01B0838F00E94220820F0952311F00C948C
S11310E012080C94180811240C945D080E943A0804
S11310F070F3959FC1F3950F50E0551F629FF00167
S1131100729FBB27F00DB11D639FAA27F00DB11D7F
S1131110AA1F649F6627B00DA11D661F829F222708
S1131120B00DA11D621F739FB00DA11D621F839F8F
S1131130A00D611D221F749F3327A00D611D231F65
S1131140849F600D211D822F762F6A2F11249F57B3
S113115050409AF0F1F088234AF0EE0FFF1FBB1FB6
S1131160661F771F881F91505040A9F79E3F510575
S113117080F00C9412080C945D085F3FE4F3983EF1
S1131180D4F3869577956795B795F795E7959F5F1F
S1131190C1F7FE2B880F911D9695879597F90895B1
S11311A097FB072E16F4009407D077FD09D00E9410
S11311B0EA0807FC05D03EF4909581959F4F089569
S11311C0709561957F4F0895EE0FFF1F0590F49180
S11311D0E02D0994AA1BBB1B51E107C0AA1FBB1F2A
S11311E0A617B70710F0A61BB70B881F991F5A95AF
S11311F0A9F780959095BC01CD010895F894FFCF8F
S11312000403040302020405060704050607030099
S1091210010001020101CE
S9030000FC
